:100000000C9463000C948B000C948B000C948B006C
:100010000C948B000C948B000C948B000C948B0034
:100020000C948B000C948B000C948B000C948B0024
:100030000C948B000C948B000C948B000C948B0014
:100040000C94D7020C948B000C949B050C94CD055A
:100050000C948B000C948B000C948B000C948B00F4
:100060000C948B000C948B0000000008000201002F
:100070000003040700000000000000000102040863
:100080001020408001020408102001020408102002
:10009000040404040404040402020202020203032E
:1000A00003030303000000002300260029000000D2
:1000B0000000250028002B0000000000240027007D
:1000C0002A00D002FD0511241FBECFEFD8E0DEBF0D
:1000D000CDBF11E0A0E0B1E0EEE0F5E102C0059097
:1000E0000D92A234B107D9F721E0A2E4B1E001C03A
:1000F0001D92AA3FB207E1F710E0C6ECD0E004C0C1
:100100002297FE010E94810AC23CD107C9F70E94D2
:1001100041060C94850A0C940000DC0115966C9342
:10012000159716964C93169770E0FB01E458FF4F15
:10013000E4911796EC931797FB01E057FF4F6491FA
:1001400018966C93189740E85EE360E070E01D96A7
:100150004D935D936D937C9350970895AF92BF92AA
:10016000CF92DF92EF92FF920F931F93CF93DF9383
:10017000EC01AF80662311F0BA2C01C0B12CA88528
:10018000B0E0AA0FBB1FAC55BF4F40E050E0BA0132
:10019000FD0185919491FC0180818A218B1112C00F
:1001A0008A019B010F5F1F4F2F4F3F4FCD84DE848D
:1001B000EF84F8884C155D056E057F0538F4B901AC
:1001C000A801E6CF342F252FCB0104C030E020E07A
:1001D00080E090E0632F722FDF91CF911F910F91FC
:1001E000FF90EF90DF90CF90BF90AF900895CF92A7
:1001F000DF92EF92FF920F931F93CF93DF93CDB7D0
:10020000DEB7C054D1400FB6F894DEBF0FBECDBFED
:100210008C01F62E0E942103F11016C0F801C18452
:10022000D284E384F4849B01AC012C193D094E096E
:100230005F0969017A0130EDC31637E0D306E104A6
:10024000F10410F48189BAC0F8016187728783874D
:1002500094871482138212821182108261E0858158
:100260000E9420046AEF70E080E090E00E9450035A
:1002700061E0F80185810E94E70360E0F801858173
:100280000E94200464E170E080E090E00E9450034E
:10029000F89461E0F80185810E94200488E290E0F2
:1002A0000E94780362E0F80185810E94E7038AE0FA
:1002B00090E00E94780360E0C8010E94AE00672BC6
:1002C000682B692B41F061E0C8010E94AE00672BEA
:1002D000682B692B21F4F801118A78946EC06E01A5
:1002E000FFEBCF1AFEEFDF0A9E012F5F3F4F790130
:1002F00060E0C8010E94AE00F701608371838283D1
:10030000938361E0C8010E94AE00F70164837583A6
:1003100086839783F8E0EF0EF11CEC14FD0441F79F
:1003200078949E012F5F3F4F790120E030E0F70184
:10033000408151816281738184819581A681B781D9
:100340004115510561057105B1F10097A105B10590
:1003500091F1F901F595E795F595E795F595E7950F
:10036000E00FF11FD080DD0C481759076A077B07A3
:1003700010F0D08203C08D2D816080832F5F3F4FAE
:10038000F8E0EF0EF11C2832310589F6F8012481DE
:1003900030E04081818190E0840F911D4281840F83
:1003A000911D4381840F911D99272817390719F44E
:1003B00081E0818B03C0F801118A80E0C05CDE4FD0
:1003C0000FB6F894DEBF0FBECDBFDF91CF911F9166
:1003D0000F91FF90EF90DF90CF900895CF92DF9232
:1003E000EF92FF920F931F93CF93DF93EC01162FA1
:1003F000642F0E94F700882309F443C08E818B305C
:1004000031F008F43EC08551823040F03AC06A8134
:1004100070E080E090E00E94400924C00A81602FD3
:100420006F7770E080E090E00E94420920E030E0C9
:1004300040E853E40E94F6096B017C016B8170E097
:1004400080E090E00E9442099B01AC01C701B60127
:100450000E943F082DEC3CEC4CEC5DE30E94F60959
:1004600007FD9058112389F026E636E646EE5FE355
:100470000E94F60920E030E040E052E40E943F088C
:1004800004C060E070E080EC9FE7DF91CF911F91A6
:100490000F91FF90EF90DF90CF900895CF92DF9271
:1004A000EF92FF92CF93DF93EC0160E00E94F700A0
:1004B000882379F18E818B3029F158F18551823072
:1004C00040F5688170E080E090E00E94400920E003
:1004D00030E040E853E40E94F6096B017C01698139
:1004E00070E080E090E00E9442099B01AC01C701EE
:1004F000B6010E943F082DEC3CEC4CEC5DE30E9401
:10050000F6090BC0688170E080E090E00E9440092D
:1005100004C060E070E080EC9FE7DF91CF91FF9036
:10052000EF90DF90CF90089526E040E855E260E03C
:1005300070E08DE591E00C94390560E071E08DE5A7
:1005400091E00E948E0660E082E491E00E944E02FB
:10055000AB01BC0122E030E08DE591E00E943B0858
:100560006BE071E08DE591E00E948E0640E060E076
:1005700082E491E00E94EE01AB01BC0122E030E098
:100580008DE591E00E943B086DE171E08DE591E021
:100590000E949B0660EA7FE080E090E00C945003AC
:1005A00026E04BE06EE082E491E00C948D001F9217
:1005B0000F920FB60F9211242F933F938F939F9317
:1005C000AF93BF938091550190915601A09157012F
:1005D000B09158013091540123E0230F2D3720F4BE
:1005E0000196A11DB11D05C026E8230F0296A11D8D
:1005F000B11D209354018093550190935601A0930F
:100600005701B09358018091590190915A01A091DE
:100610005B01B0915C010196A11DB11D8093590150
:1006200090935A01A0935B01B0935C01BF91AF918D
:100630009F918F913F912F910F900FBE0F901F9020
:1006400018952FB7F89460915501709156018091DB
:100650005701909158012FBF08953FB7F8948091AA
:10066000590190915A01A0915B01B0915C0126B5AE
:10067000A89B05C02F3F19F00196A11DB11D3FBFDA
:100680006627782F892F9A2F620F711D811D911D6A
:1006900042E0660F771F881F991F4A95D1F708958A
:1006A000CF92DF92EF92FF92CF93DF936B017C01A9
:1006B0000E942D03EB01C114D104E104F10489F07F
:1006C0000E943D080E942D036C1B7D0B683E734009
:1006D00090F381E0C81AD108E108F108C851DC4F55
:1006E000EACFDF91CF91FF90EF90DF90CF90089508
:1006F0008230910538F0880F991F880F991F059750
:100700000197F1F70895789484B5826084BD84B52B
:10071000816084BD85B5826085BD85B5816085BDFC
:10072000EEE6F0E0808181608083E1E8F0E0108215
:10073000808182608083808181608083E0E8F0E056
:10074000808181608083E1EBF0E080818460808340
:10075000E0EBF0E0808181608083EAE7F0E0808177
:1007600084608083808182608083808181608083D7
:100770008081806880831092C1000895833081F069
:1007800028F4813099F08230A1F008958730A9F0E3
:100790008830B9F08430D1F4809180008F7D03C01F
:1007A000809180008F7780938000089584B58F7743
:1007B00002C084B58F7D84BD08958091B0008F778D
:1007C00003C08091B0008F7D8093B0000895CF93D7
:1007D000DF9390E0FC01E458FF4F2491FC01E057C7
:1007E000FF4F8491882349F190E0880F991FFC0105
:1007F000E854FF4FA591B49182559F4FFC01C591DC
:10080000D4919FB7611108C0F8948C9120958223F0
:100810008C93888182230AC0623051F4F8948C91C1
:10082000322F309583238C938881822B888304C058
:10083000F8948C91822B8C939FBFDF91CF91089578
:100840000F931F93CF93DF931F92CDB7DEB7282F5F
:1008500030E0F901E859FF4F8491F901E458FF4F66
:100860001491F901E057FF4F04910023C9F0882348
:1008700021F069830E94BE036981E02FF0E0EE0F52
:10088000FF1FE255FF4FA591B4919FB7F8948C914B
:10089000611103C01095812301C0812B8C939FBFF0
:1008A0000F90DF91CF911F910F910895FC01818DE1
:1008B000228D90E0805C9F4F821B91098F73992756
:1008C0000895FC01918D828D981731F0828DE80F8B
:1008D000F11D858D90E008958FEF9FEF0895FC0145
:1008E000918D828D981761F0828DDF01A80FB11D67
:1008F0005D968C91928D9F5F9F73928F90E008958B
:100900008FEF9FEF089583EF95E0892B49F080E00A
:1009100090E0892B29F00E94F30581110C940000CE
:100920000895FC01848DDF01A80FB11DA35ABF4FAC
:100930002C91848D90E001968F739927848FA689DE
:10094000B7892C93A089B1898C9180648C93938D05
:10095000848D981306C00288F389E02D80818F7DF5
:1009600080830895CF93DF93EC01888D8823C9F0AD
:10097000EA89FB89808185FD05C0A889B9898C91A8
:1009800086FD0FC00FB607FCF5CF808185FFF2CF43
:10099000A889B9898C9185FFEDCFCE010E94910481
:1009A000E7CFDF91CF910895CF92DF92FF920F931F
:1009B0001F93CF93DF931F92CDB7DEB76C0181E019
:1009C000D60158968C9358975B969C915B975C9652
:1009D0008C915C97981307C05096ED91FC915197BC
:1009E000808185FD2EC0F601038D10E00F5F1F4F43
:1009F0000F731127F02EF601848DF81211C00FB677
:100A000007FCF9CFD6015096ED91FC91519780816A
:100A100085FFF1CFC60169830E9491046981EBCF04
:100A2000838DE80FF11DE35AFF4F6083D6015B967B
:100A30000C935B975296ED91FC9153978081806265
:100A40000CC0D6015696ED91FC9157976083509655
:100A5000ED91FC91519780818064808381E090E0EA
:100A60000F90DF91CF911F910F91FF90DF90CF906A
:100A70000895BF92CF92DF92EF92FF92CF93DF93D0
:100A8000EC016A017B01B22EE889F98982E080835A
:100A9000411581EE580761057105A1F060E079E02C
:100AA0008DE390E0A70196010E945D0A2150310973
:100AB000410951095695479537952795211580E1AC
:100AC000380798F0E889F989108260E874E88EE1C7
:100AD00090E0A70196010E945D0A21503109410969
:100AE00051095695479537952795EC85FD853083B7
:100AF000EE85FF852083188EEC89FD89B082EA8916
:100B0000FB89808180618083EA89FB89808188609C
:100B10008083EA89FB89808180688083EA89FB89F8
:100B200080818F7D8083DF91CF91FF90EF90DF9068
:100B3000CF90BF9008951F920F920FB60F9211247D
:100B40002F938F939F93EF93FF93E0916D01F0911B
:100B50006E018081E0917301F091740182FD12C0F9
:100B60009081809176018F5F8F732091770182173A
:100B700051F0E0917601F0E0E35AFE4F958F8093BB
:100B8000760101C08081FF91EF919F918F912F910C
:100B90000F900FBE0F901F9018951F920F920FB6D7
:100BA0000F9211242F933F934F935F936F937F93F3
:100BB0008F939F93AF93BF93EF93FF938DE591E056
:100BC0000E949104FF91EF91BF91AF919F918F91FE
:100BD0007F916F915F914F913F912F910F900FBE39
:100BE0000F901F9018958DE591E00E94560421E02A
:100BF000892B09F420E0822F089510926001109251
:100C00005F0188EE93E0A0E0B0E0809361019093F3
:100C10006201A0936301B093640184E291E0909338
:100C20005E0180935D0185EC90E090936A01809372
:100C3000690184EC90E090936C0180936B0180ECEF
:100C400090E090936E0180936D0181EC90E0909321
:100C5000700180936F0182EC90E090937201809319
:100C6000710186EC90E0909374018093730110926F
:100C7000760110927701109278011092790108950F
:100C800008950E9483030E9440060E949402C3E8D4
:100C9000D4E00E949D022097E1F30E948304F9CFE3
:100CA000CF92DF92EF92FF920F931F93CF93DF9338
:100CB0007C016A01EB0100E010E00C151D0571F0EC
:100CC0006991D701ED91FC910190F081E02DC70170
:100CD0000995892B19F00F5F1F4FEFCFC801DF91E6
:100CE000CF911F910F91FF90EF90DF90CF900895DB
:100CF0006115710581F0DB010D900020E9F7AD0170
:100D000041505109461B570BDC01ED91FC910280CB
:100D1000F381E02D099480E090E008950C9478062A
:100D2000DC01ED91FC910190F081E02D099460E3EC
:100D300071E00C9478060F931F93CF93DF93EC012F
:100D40000E9478068C01CE010E949706800F911FA9
:100D5000DF91CF911F910F9108958F929F92AF9243
:100D6000BF92CF92DF92EF92FF920F931F93CF9398
:100D7000DF93CDB7DEB7A1970FB6F894DEBF0FBEF5
:100D8000CDBF7C01C42EE52FCB01D22E19A221E0CC
:100D90002D1510F02AE0D22E8E010F5D1F4F8D2CE5
:100DA000912CA12CB12C6C2D7E2FA50194010E94B9
:100DB0005D0A8C2DD29E80191124015011098A30B0
:100DC00014F4805D01C0895CF80180832115310530
:100DD0004105510521F0C22EE32FCA01E4CFB8012D
:100DE000C7010E947806A1960FB6F894DEBF0FBE29
:100DF000CDBFDF91CF911F910F91FF90EF90DF90CA
:100E0000CF90BF90AF909F908F900895CF92DF9238
:100E1000EF92FF920F931F93CF93DF93EC016A0140
:100E20007B012115310579F4E881F9810190F08188
:100E3000E02D642FDF91CF911F910F91FF90EF90E4
:100E4000DF90CF9009942A303105E9F477FF1AC07A
:100E50006DE20E9490068C0144275527BA014C1977
:100E60005D096E097F092AE0CE010E94AD06800F60
:100E7000911FDF91CF911F910F91FF90EF90DF9025
:100E8000CF9008952AE0B701A601CE01DF91CF915E
:100E90001F910F91FF90EF90DF90CF900C94AD06D3
:100EA0004F925F926F927F928F929F92AF92BF927A
:100EB000CF92DF92EF92FF920F931F93CF93DF9326
:100EC000EC016A017B01B22E9A01AB01C701B601A8
:100ED0000E94590A882319F063E371E027C02601B4
:100EE0003701E89477F82FEF3FEF4FE75FE7C30153
:100EF000B2010E94590A81110DC02FEF3FEF4FE759
:100F00005FE7C301B2010E94A30818161CF467E34F
:100F100071E00CC02FEF3FEF4FE75FE4C701B60170
:100F20000E94F2091816ACF46BE371E0CE01DF9178
:100F3000CF911F910F91FF90EF90DF90CF90BF90D6
:100F4000AF909F908F907F906F905F904F900C9498
:100F500078062FEF3FEF4FE75FECC701B6010E9425
:100F6000A30887FDE1CF20E030E0A901C701B60169
:100F70000E94A30887FF0AC06DE2CE010E9490067E
:100F80008C01F7FAF094F7F8F09402C000E010E05A
:100F9000A12C60E070E080E09FE3AB1441F020E022
:100FA00030E040E251E40E94A708A394F6CF9B01F1
:100FB000AC01C701B6010E943F086B017C010E9491
:100FC00014092B013C010E9440099B01AC01C7019F
:100FD000B6010E943E086B017C012AE0B301A20128
:100FE000CE010E94AD06080F191FBB2039F06FE338
:100FF00071E0CE010E947806080F191F7B2C772024
:1010000041F120E030E040E251E4C701B6010E9426
:10101000F6096B017C010E940F094B01AA2497FC81
:10102000A094BA2C2AE030E0B501A401CE010E94C0
:101030000607080F191FC501B4010E9442099B0150
:10104000AC01C701B6010E943E086B017C017A9495
:10105000D6CFC801DF91CF911F910F91FF90EF90F4
:10106000DF90CF90BF90AF909F908F907F906F90C8
:101070005F904F9008950C94500708955058BB27E7
:10108000AA270ED075C166D130F06BD120F031F4B3
:101090009F3F11F41EF45BC10EF4E095E7FB51C1D4
:1010A000E92F77D180F3BA17620773078407950792
:1010B00018F071F49EF58FC10EF4E0950B2EBA2F47
:1010C000A02D0B01B90190010C01CA01A00111244E
:1010D000FF27591B99F0593F50F4503E68F11A16FA
:1010E000F040A22F232F342F4427585FF3CF46958B
:1010F00037952795A795F0405395C9F77EF41F16AD
:10110000BA0B620B730B840BBAF09150A1F0FF0F76
:10111000BB1F661F771F881FC2F70EC0BA0F621F62
:10112000731F841F48F4879577956795B795F79552
:101130009E3F08F0B3CF9395880F08F09927EE0FE4
:10114000979587950895D9D008F481E008950CD03B
:101150000FC107D140F0FED030F021F45F3F19F00D
:10116000F0C0511139C1F3C014D198F39923C9F3D8
:101170005523B1F3951B550BBB27AA27621773079D
:10118000840738F09F5F5F4F220F331F441FAA1F51
:10119000A9F333D00E2E3AF0E0E830D09150504011
:1011A000E695001CCAF729D0FE2F27D0660F771FBF
:1011B000881FBB1F261737074807AB07B0E809F0A1
:1011C000BB0B802DBF01FF2793585F4F2AF09E3F36
:1011D000510568F0B6C000C15F3FECF3983EDCF308
:1011E000869577956795B795F7959F5FC9F7880FAF
:1011F000911D9695879597F90895E1E0660F771F01
:10120000881FBB1F621773078407BA0720F0621B91
:10121000730B840BBA0BEE1F88F7E095089504D08A
:101220006894B111D9C00895BCD088F09F5790F050
:10123000B92F9927B751A0F0D1F0660F771F881FFB
:10124000991F1AF0BA95C9F712C0B13081F0C3D016
:10125000B1E00895C0C0672F782F8827B85F39F0B4
:10126000B93FCCF3869577956795B395D9F73EF45A
:1012700090958095709561957F4F8F4F9F4F089502
:10128000E89409C097FB3EF4909580957095619520
:101290007F4F8F4F9F4F9923A9F0F92F96E9BB27D6
:1012A0009395F695879577956795B795F111F8CF52
:1012B000FAF4BB0F11F460FF1BC06F5F7F4F8F4FBD
:1012C0009F4F16C0882311F096E911C0772321F0B3
:1012D0009EE8872F762F05C0662371F096E8862F4B
:1012E00070E060E02AF09A95660F771F881FDAF7A2
:1012F000880F9695879597F90895990F0008550FCF
:10130000AA0BE0E8FEEF16161706E807F907C0F08B
:1013100012161306E407F50798F0621B730B840B93
:10132000950B39F40A2661F0232B242B252B21F46D
:1013300008950A2609F4A140A6958FEF811D811D0D
:10134000089597F99F6780E870E060E008959FEF47
:1013500080EC089500240A9416161706180609064C
:10136000089500240A94121613061406050608951B
:10137000092E0394000C11F4882352F0BB0F40F4A3
:10138000BF2B11F460FF04C06F5F7F4F8F4F9F4FE3
:10139000089557FD9058440F551F59F05F3F71F065
:1013A0004795880F97FB991F61F09F3F79F08795CC
:1013B0000895121613061406551FF2CF4695F1DF55
:1013C00008C0161617061806991FF1CF86957105E5
:1013D000610508940895E894BB2766277727CB0119
:1013E00097F908958ADF08F48FEF08950BD0C0CFE6
:1013F000B1DF28F0B6DF18F0952309F0A2CFA7CF10
:101400001124EACFC6DFA0F3959FD1F3950F50E0EA
:10141000551F629FF001729FBB27F00DB11D639FA6
:10142000AA27F00DB11DAA1F649F6627B00DA11D4C
:10143000661F829F2227B00DA11D621F739FB00DF2
:10144000A11D621F839FA00D611D221F749F332762
:10145000A00D611D231F849F600D211D822F762FFB
:101460006A2F11249F5750408AF0E1F088234AF0F8
:10147000EE0FFF1FBB1F661F771F881F9150504044
:10148000A9F79E3F510570F05CCFA6CF5F3FECF30C
:10149000983EDCF3869577956795B795F795E79530
:1014A0009F5FC1F7FE2B880F911D9695879597F941
:1014B000089523DF880B990B0895A1E21A2EAA1B29
:1014C000BB1BFD010DC0AA1FBB1FEE1FFF1FA217F4
:1014D000B307E407F50720F0A21BB30BE40BF50BF1
:1014E000661F771F881F991F1A9469F7609570957A
:1014F000809590959B01AC01BD01CF010895EE0F41
:0E150000FF1F0590F491E02D0994F894FFCFA1
:10150E0048756D65646164203D200020252054657A
:10151E006D7065726174757261203D20002043000C
:10152E0000000000D404500656046F046104B20497
:10153E000D0A006E616E00696E66006F7666002E93
:02154E0000009B
:00000001FF
