:100000000C945D000C9485000C9485000C94850084
:100010000C9485000C9485000C9485000C9485004C
:100020000C9485000C9485000C9485000C9485003C
:100030000C9485000C9485000C9485000C9485002C
:100040000C9457020C9485000C9410050C944205F6
:100050000C9485000C9485000C9485000C9485000C
:100060000C9485000C94850000000008000201003B
:100070000003040700000000000000000102040863
:100080001020408001020408102001020408102002
:10009000040404040404040402020202020203032E
:1000A0000303030300000000250028002B000000CC
:1000B0000000240027002A00720511241FBECFEF84
:1000C000D8E0DEBFCDBF11E0A0E0B1E0EAE3FDE0A3
:1000D00002C005900D92A439B107D9F722E0A4E936
:1000E000B1E001C01D92A937B207E1F710E0CAEBF9
:1000F000D0E004C02297FE010E949706C83BD107BA
:10010000C9F70E94B6050C949B060C9400000C9451
:10011000A1020F931F93CF93DF93EC01662359F055
:100120000E94A10269837A838B839C83DF91CF91A4
:100130001F910F9108950E94A10209811A812B81BC
:100140003C81601B710B820B930B6436710581053A
:10015000910530F763E070E080E090E00E94D0020B
:10016000EACF60E00C948900FC0113AA14AA15AA36
:1001700016AA11821282138214824115510561055B
:10018000710521F0CB01BA010C94D0020895FB0156
:10019000BA01A901DC01D296FC93EE93D19726E037
:1001A000CF010C94AE041F93CF93DF93EC01162F75
:1001B00066E071E089A99AA90E9403064AE050E02E
:1001C000612F89A99AA90E946B066DE071E089A947
:1001D0009AA90E94030662E370E080E090E0DF915C
:1001E000CF911F910C94D0021F93CF93DF93EC011A
:1001F000162F8D81882389F189A99AA9DC01ED91B7
:10020000FC910480F581E02D0995892BA9F307C0A5
:100210002637310519F12835310509F41D8289A9E0
:100220009AA9DC01ED91FC910480F581E02D0995FE
:100230001816190694F489A99AA9DC01ED91FC918C
:100240000680F781E02D09959C013327233631057F
:10025000F9F6612FCE010E94D30083E6DF91CF91A2
:100260001F9108950F931F93CF93DF931F92CDB7E4
:10027000DEB78C01662349F081E0F801858360E0F8
:10028000C80149830E94F4004981F80145830F9019
:10029000DF91CF911F910F91089540ED57E060E0FD
:1002A00070E084E991E00E94B40020E032EC41E08B
:1002B00050E06CED71E084E991E00E94C70084E9B0
:1002C00091E00E94B1006EE571E08091C5019091CE
:1002D000C6010E9403066AE070E080E090E00E94A0
:1002E000D00241E060E084E991E00E94320161E0E7
:1002F000809104010E945C0361E0809102010E94F0
:100300005C0361E0809100010C945C03CF92DF926A
:10031000EF92FF920F931F930E94A102672B682B0D
:10032000692B41F40E94A10262307105810591059B
:1003300008F478C084E991E00E9487006093CB01C3
:100340007093CC018093CD019093CE010091CF01A9
:100350001091D0012091D1013091D2016017710725
:100360008207930740F46093CF017093D00180938C
:10037000D1019093D2010091CF011091D001209131
:10038000D1013091D2016B017C01C01AD10AE20A7D
:10039000F30A970186010A3F11052105310508F48A
:1003A00041C06093CF017093D0018093D1019093AD
:1003B000D20184E991E00E94B10060E771E0809190
:1003C000C5019091C6010E94030668E771E0809123
:1003D000C5019091C6010E9403060E94A102AB01D3
:1003E000BC012AE030E08091C5019091C6010E94D5
:1003F0005E066AE771E08091C5019091C6010E9496
:10040000030665E070E080E090E00E94D0026AE0C0
:1004100070E080E090E00E94D00261E084E991E029
:100420000E94F40061E0809104010E94950360E065
:10043000809102010E94950360E0809100010E947A
:10044000950368EE73E080E090E00E94D00260E0E7
:10045000809104010E94950361E0809102010E9455
:10046000950360E0809100010E94950368EE73E0BF
:1004700080E090E00E94D00260E0809104010E9440
:10048000950360E0809102010E94950361E08091F4
:1004900000010E94950368EE73E080E090E01F91F8
:1004A0000F91FF90EF90DF90CF900C94D0021F92AD
:1004B0000F920FB60F9211242F933F938F939F9318
:1004C000AF93BF938091D4019091D501A091D601B3
:1004D000B091D7013091D30123E0230F2D3720F4C1
:1004E0000196A11DB11D05C026E8230F0296A11D8E
:1004F000B11D2093D3018093D4019093D501A09393
:10050000D601B093D7018091D8019091D901A091E3
:10051000DA01B091DB010196A11DB11D8093D801D4
:100520009093D901A093DA01B093DB01BF91AF9111
:100530009F918F913F912F910F900FBE0F901F9021
:1005400018952FB7F8946091D4017091D5018091DE
:10055000D6019091D7012FBF08953FB7F8948091AD
:10056000D8019091D901A091DA01B091DB0126B5B3
:10057000A89B05C02F3F19F00196A11DB11D3FBFDB
:100580006627782F892F9A2F620F711D811D911D6B
:1005900042E0660F771F881F991F4A95D1F708958B
:1005A000CF92DF92EF92FF92CF93DF936B017C01AA
:1005B0000E94AD02EB01C114D104E104F10489F001
:1005C0000E9472060E94AD026C1B7D0B683E734058
:1005D00090F381E0C81AD108E108F108C851DC4F56
:1005E000EACFDF91CF91FF90EF90DF90CF90089509
:1005F000789484B5826084BD84B5816084BD85B5FE
:10060000826085BD85B5816085BDEEE6F0E08081C4
:1006100081608083E1E8F0E01082808182608083E5
:10062000808181608083E0E8F0E080818160808368
:10063000E1EBF0E0808184608083E0EBF0E080819A
:1006400081608083EAE7F0E080818460808380813C
:1006500082608083808181608083808180688083E4
:100660001092C1000895833081F028F4813099F010
:100670008230A1F008958730A9F08830B9F0843035
:10068000D1F4809180008F7D03C0809180008F77AE
:1006900080938000089584B58F7702C084B58F7DE4
:1006A00084BD08958091B0008F7703C08091B00021
:1006B0008F7D8093B0000895CF93DF9390E0FC018D
:1006C000E458FF4F2491FC01E057FF4F84918823A9
:1006D00049F190E0880F991FFC01E255FF4FA59169
:1006E000B4918C559F4FFC01C591D4919FB7611176
:1006F00008C0F8948C91209582238C938881822362
:100700000AC0623051F4F8948C91322F30958323D3
:100710008C938881822B888304C0F8948C91822BDF
:100720008C939FBFDF91CF9108950F931F93CF9329
:10073000DF931F92CDB7DEB7282F30E0F901E859DB
:10074000FF4F8491F901E458FF4F1491F901E057EC
:10075000FF4F04910023C9F0882321F069830E9490
:1007600033036981E02FF0E0EE0FFF1FEC55FF4FE0
:10077000A591B4919FB7F8948C91611103C0109525
:10078000812301C0812B8C939FBF0F90DF91CF916C
:100790001F910F910895FC01818D228D90E0805C66
:1007A0009F4F821B91098F7399270895FC01918DAA
:1007B000828D981731F0828DE80FF11D858D90E0C4
:1007C00008958FEF9FEF0895FC01918D828D98170A
:1007D00061F0828DDF01A80FB11D5D968C91928D25
:1007E0009F5F9F73928F90E008958FEF9FEF089522
:1007F00088E695E0892B49F080E090E0892B29F08C
:100800000E94680581110C9400000895FC01848DFC
:10081000DF01A80FB11DA35ABF4F2C91848D90E02A
:1008200001968F739927848FA689B7892C93A08905
:10083000B1898C9180648C93938D848D981306C0BC
:100840000288F389E02D80818F7D80830895CF9386
:10085000DF93EC01888D8823C9F0EA89FB898081C8
:1008600085FD05C0A889B9898C9186FD0FC00FB69A
:1008700007FCF5CF808185FFF2CFA889B9898C91DB
:1008800085FFEDCFCE010E940604E7CFDF91CF9127
:100890000895CF92DF92FF920F931F93CF93DF9330
:1008A0001F92CDB7DEB76C0181E0D60158968C93CC
:1008B00058975B969C915B975C968C915C9798138C
:1008C00007C05096ED91FC915197808185FD2EC017
:1008D000F601038D10E00F5F1F4F0F731127F02EED
:1008E000F601848DF81211C00FB607FCF9CFD601BE
:1008F0005096ED91FC915197808185FFF1CFC60113
:1009000069830E9406046981EBCF838DE80FF11D96
:10091000E35AFF4F6083D6015B960C935B97529628
:10092000ED91FC915397808180620CC0D601569660
:10093000ED91FC91579760835096ED91FC91519702
:1009400080818064808381E090E00F90DF91CF917F
:100950001F910F91FF90DF90CF900895BF92CF929B
:10096000DF92EF92FF92CF93DF93EC016A017B015C
:10097000B22EE889F98982E08083411581EE58071B
:1009800061057105A1F060E079E08DE390E0A701D9
:1009900096010E947306215031094109510956956B
:1009A000479537952795211580E1380798F0E88914
:1009B000F989108260E874E88EE190E0A701960161
:1009C0000E947306215031094109510956954795F6
:1009D00037952795EC85FD853083EE85FF8520834F
:1009E000188EEC89FD89B082EA89FB89808180615B
:1009F0008083EA89FB89808188608083EA89FB891A
:100A0000808180688083EA89FB8980818F7D8083F3
:100A1000DF91CF91FF90EF90DF90CF90BF9008953E
:100A20001F920F920FB60F9211242F938F939F93C3
:100A3000EF93FF93E091EC01F091ED018081E09163
:100A4000F201F091F30182FD12C090818091F501D5
:100A50008F5F8F732091F601821751F0E091F501BD
:100A6000F0E0E452FE4F958F8093F50101C0808144
:100A7000FF91EF919F918F912F910F900FBE0F904B
:100A80001F9018951F920F920FB60F9211242F935B
:100A90003F934F935F936F937F938F939F93AF9306
:100AA000BF93EF93FF938CED91E00E940604FF91BA
:100AB000EF91BF91AF919F918F917F916F915F91D6
:100AC0004F913F912F910F900FBE0F901F9018954F
:100AD0008CED91E00E94CB0321E0892B09F420E00A
:100AE000822F08951092DF011092DE0188EE93E0CC
:100AF000A0E0B0E08093E0019093E101A093E201D7
:100B0000B093E30187E891E09093DD018093DC01ED
:100B100085EC90E09093E9018093E80184EC90E00B
:100B20009093EB018093EA0180EC90E09093ED01CB
:100B30008093EC0181EC90E09093EF018093EE01C3
:100B400082EC90E09093F1018093F00186EC90E0CC
:100B50009093F3018093F2011092F5011092F60147
:100B60001092F7011092F801089508950E94F8027A
:100B70000E94B5050E944D01C8EFD3E00E94860196
:100B80002097E1F30E94F803F9CFCF92DF92EF9222
:100B9000FF920F931F93CF93DF937C016A01EB01C8
:100BA00000E010E00C151D0571F06991D701ED9181
:100BB000FC910190F081E02DC7010995892B19F076
:100BC0000F5F1F4FEFCFC801DF91CF911F910F91A2
:100BD000FF90EF90DF90CF9008956115710581F03F
:100BE000DB010D900020E9F7AD0141505109461B92
:100BF000570BDC01ED91FC910280F381E02D09940B
:100C000080E090E008950C94ED058F929F92AF9252
:100C1000BF92CF92DF92EF92FF920F931F93CF93E9
:100C2000DF93CDB7DEB7A1970FB6F894DEBF0FBE46
:100C3000CDBF7C01C42EE52FCB01D22E19A221E01D
:100C40002D1510F02AE0D22E8E010F5D1F4F8D2C36
:100C5000912CA12CB12C6C2D7E2FA50194010E940A
:100C600073068C2DD29E80191124015011098A30EF
:100C700014F4805D01C0895CF80180832115310581
:100C80004105510521F0C22EE32FCA01E4CFB8017E
:100C9000C7010E94ED05A1960FB6F894DEBF0FBE06
:100CA000CDBFDF91CF911F910F91FF90EF90DF901B
:100CB000CF90BF90AF909F908F90089521153105F0
:100CC00041F4DC01ED91FC910190F081E02D642F65
:100CD00009940C9405069A01462F50E060E070E0FC
:100CE0000C945E060895A1E21A2EAA1BBB1BFD01FF
:100CF0000DC0AA1FBB1FEE1FFF1FA217B307E407FB
:100D0000F50720F0A21BB30BE40BF50B661F771F52
:100D1000881F991F1A9469F7609570958095909532
:100D20009B01AC01BD01CF010895EE0FFF1F05909F
:0A0D3000F491E02D0994F894FFCF30
:100D3A000A0009000800564D4450435F005F564DB3
:100D4A004450430D0A004572726F723A204174741E
:100D5A00656D707420746F207365742061207265EC
:100D6A0061642D6F6E6C79207661726961626C655F
:100D7A00206F7220646174612074797065206E6FCF
:100D8A007420737570706F727465640D0A00564D25
:100D9A004450565F317C315F564D4450560D0A001F
:100DAA00564D4450455F31007C005F564D445045D6
:100DBA000D0A00000000004904C505CB03E403D670
:040DCA0003270400F7
:00000001FF
