:100000000C945C000C9479000C9479000C947900A9
:100010000C9479000C9479000C9479000C9479007C
:100020000C9479000C9479000C9479000C9479006C
:100030000C9479000C9479000C9479000C9479005C
:100040000C94DA000C9479000C9479000C947900EB
:100050000C9479000C9479000C9479000C9479003C
:100060000C9479000C947900000000080002010053
:100070000003040700000000000000000102040863
:100080001020408001020408102001020408102002
:10009000040404040404040402020202020203032E
:1000A0000303030300000000250028002B000000CC
:1000B0000000240027002A0011241FBECFEFD8E043
:1000C000DEBFCDBF11E0A0E0B1E0EAEAF4E002C09B
:1000D00005900D92A630B107D9F721E0A6E0B1E076
:1000E00001C01D92AF30B207E1F70E9443020C94A9
:1000F00053020C94000061E0809104010E94D3013E
:1001000061E0809102010E94D30161E080910001D1
:100110000C94D301EF92FF920F931F93CF93DF9331
:1001200084E0E82E81E0F82E61E0F70180810E94F2
:100130000C0202E011E060E0F80180810E940C02F4
:10014000C0E0D1E060E088810E940C0268EE73E0BC
:1001500080E090E00E94470160E0F70180810E940A
:100160000C0261E0F80180810E940C0260E088814D
:100170000E940C0268EE73E080E090E00E9447016C
:1001800060E0F70180810E940C0260E0F80180814C
:100190000E940C0261E088810E940C0268EE73E00C
:1001A00080E090E0DF91CF911F910F91FF90EF9051
:1001B0000C9447011F920F920FB60F9211242F93A8
:1001C0003F938F939F93AF93BF938091070190913B
:1001D0000801A0910901B0910A013091060123E0C4
:1001E000230F2D3720F40196A11DB11D05C026E86F
:1001F000230F0296A11DB11D2093060180930701D4
:1002000090930801A0930901B0930A0180910B011A
:1002100090910C01A0910D01B0910E010196A11DCC
:10022000B11D80930B0190930C01A0930D01B0932D
:100230000E01BF91AF919F918F913F912F910F90A0
:100240000FBE0F901F9018953FB7F89480910B0147
:1002500090910C01A0910D01B0910E0126B5A89BC3
:1002600005C02F3F19F00196A11DB11D3FBF6627A4
:10027000782F892F9A2F620F711D811D911D42E0E9
:10028000660F771F881F991F4A95D1F70895CF925F
:10029000DF92EF92FF92CF93DF936B017C010E947C
:1002A0002401EB01C114D104E104F10489F00E949E
:1002B00052020E9424016C1B7D0B683E734090F338
:1002C00081E0C81AD108E108F108C851DC4FEACF33
:1002D000DF91CF91FF90EF90DF90CF9008957894C9
:1002E00084B5826084BD84B5816084BD85B582603B
:1002F00085BD85B5816085BDEEE6F0E080818160D9
:100300008083E1E8F0E010828081826080838081D8
:1003100081608083E0E8F0E0808181608083E1EBB0
:10032000F0E0808184608083E0EBF0E08081816098
:100330008083EAE7F0E0808184608083808182604E
:100340008083808181608083808180688083109237
:10035000C1000895833081F028F4813099F0823013
:10036000A1F008958730A9F08830B9F08430D1F435
:10037000809180008F7D03C0809180008F77809373
:100380008000089584B58F7702C084B58F7D84BDC9
:1003900008958091B0008F7703C08091B0008F7D69
:1003A0008093B0000895CF93DF9390E0FC01E45870
:1003B000FF4F2491FC01E057FF4F8491882349F1BE
:1003C00090E0880F991FFC01E255FF4FA591B49171
:1003D0008C559F4FFC01C591D4919FB7611108C006
:1003E000F8948C91209582238C93888182230AC073
:1003F000623051F4F8948C91322F309583238C9392
:100400008881822B888304C0F8948C91822B8C93F2
:100410009FBFDF91CF9108950F931F93CF93DF93E9
:100420001F92CDB7DEB7282F30E0F901E859FF4F12
:100430008491F901E458FF4F1491F901E057FF4FFF
:1004400004910023C9F0882321F069830E94AA0146
:100450006981E02FF0E0EE0FFF1FEC55FF4FA591F3
:10046000B4919FB7F8948C91611103C010958123CA
:1004700001C0812B8C939FBF0F90DF91CF911F9173
:100480000F91089508950E946F010E9442020E94F8
:100490007B00C0E0D0E00E948A002097E1F30E9438
:0A04A0000000F9CF0895F894FFCF93
:0604AA000A000900080031
:00000001FF
