:100000000C9463000C948B000C948B000C948B006C
:100010000C948B000C948B000C948B000C948B0034
:100020000C948B000C948B000C948B000C948B0024
:100030000C948B000C948B000C948B000C948B0014
:100040000C9459040C948B000C941D070C944F07CE
:100050000C948B000C948B000C948B000C948B00F4
:100060000C948B000C948B0000000008000201002F
:100070000003040700000000000000000102040863
:100080001020408001020408102001020408102002
:10009000040404040404040402020202020203032E
:1000A00003030303000000002300260029000000D2
:1000B0000000250028002B0000000000240027007D
:1000C0002A0052047F0711241FBECFEFD8E0DEBF05
:1000D000CDBF11E0A0E0B1E0EAE3F8E102C0059095
:1000E0000D92AC3BB107D9F722E0ACEBB1E001C017
:1000F0001D92A33BB207E1F710E0C6ECD0E004C0CC
:100100002297FE010E94170CC23CD107C9F70E943A
:10011000C3070C941B0C0C940000DC0115966C9327
:10012000159716964C93169770E0FB01E458FF4F15
:10013000E4911796EC931797FB01E057FF4F6491FA
:1001400018966C93189740E85EE360E070E01D96A7
:100150004D935D936D937C9350970895AF92BF92AA
:10016000CF92DF92EF92FF920F931F93CF93DF9383
:10017000EC01AF80662311F0BA2C01C0B12CA88528
:10018000B0E0AA0FBB1FAC55BF4F40E050E0BA0132
:10019000FD0185919491FC0180818A218B1112C00F
:1001A0008A019B010F5F1F4F2F4F3F4FCD84DE848D
:1001B000EF84F8884C155D056E057F0538F4B901AC
:1001C000A801E6CF342F252FCB0104C030E020E07A
:1001D00080E090E0632F722FDF91CF911F910F91FC
:1001E000FF90EF90DF90CF90BF90AF900895CF92A7
:1001F000DF92EF92FF920F931F93CF93DF93CDB7D0
:10020000DEB7C054D1400FB6F894DEBF0FBECDBFED
:100210008C01F62E0E94A304F11016C0F801C184CF
:10022000D284E384F4849B01AC012C193D094E096E
:100230005F0969017A0130EDC31637E0D306E104A6
:10024000F10410F48189BAC0F8016187728783874D
:1002500094871482138212821182108261E0858158
:100260000E94A2056AEF70E080E090E00E94D20454
:1002700061E0F80185810E94690560E0F8018581EF
:100280000E94A20564E170E080E090E00E94D20448
:10029000F89461E0F80185810E94A20588E290E06F
:1002A0000E94FA0462E0F80185810E9469058AE0F3
:1002B00090E00E94FA0460E0C8010E94AE00672B43
:1002C000682B692B41F061E0C8010E94AE00672BEA
:1002D000682B692B21F4F801118A78946EC06E01A5
:1002E000FFEBCF1AFEEFDF0A9E012F5F3F4F790130
:1002F00060E0C8010E94AE00F701608371838283D1
:10030000938361E0C8010E94AE00F70164837583A6
:1003100086839783F8E0EF0EF11CEC14FD0441F79F
:1003200078949E012F5F3F4F790120E030E0F70184
:10033000408151816281738184819581A681B781D9
:100340004115510561057105B1F10097A105B10590
:1003500091F1F901F595E795F595E795F595E7950F
:10036000E00FF11FD080DD0C481759076A077B07A3
:1003700010F0D08203C08D2D816080832F5F3F4FAE
:10038000F8E0EF0EF11C2832310589F6F8012481DE
:1003900030E04081818190E0840F911D4281840F83
:1003A000911D4381840F911D99272817390719F44E
:1003B00081E0818B03C0F801118A80E0C05CDE4FD0
:1003C0000FB6F894DEBF0FBECDBFDF91CF911F9166
:1003D0000F91FF90EF90DF90CF900895CF92DF9232
:1003E000EF92FF920F931F93CF93DF93EC01162FA1
:1003F000642F0E94F700882309F443C08E818B305C
:1004000031F008F43EC08551823040F03AC06A8134
:1004100070E080E090E00E94D60A24C00A81602F3C
:100420006F7770E080E090E00E94D80A20E030E032
:1004300040E853E40E948C0B6B017C016B8170E0FF
:1004400080E090E00E94D80A9B01AC01C701B60190
:100450000E94D5092DEC3CEC4CEC5DE30E948C0B2A
:1004600007FD9058112389F026E636E646EE5FE355
:100470000E948C0B20E030E040E052E40E94D5095D
:1004800004C060E070E080EC9FE7DF91CF911F91A6
:100490000F91FF90EF90DF90CF900895CF92DF9271
:1004A000EF92FF92CF93DF93EC0160E00E94F700A0
:1004B000882379F18E818B3029F158F18551823072
:1004C00040F5688170E080E090E00E94D60A20E06C
:1004D00030E040E853E40E948C0B6B017C016981A1
:1004E00070E080E090E00E94D80A9B01AC01C70157
:1004F000B6010E94D5092DEC3CEC4CEC5DE30E946A
:100500008C0B0BC0688170E080E090E00E94D60AFE
:1005100004C060E070E080EC9FE7DF91CF91FF9036
:10052000EF90DF90CF9008950C94A3040F931F9346
:10053000CF93DF93EC01662359F00E94A3046983F3
:100540007A838B839C83DF91CF911F910F910895C4
:100550000E94A30409811A812B813C81601B710BCD
:10056000820B930B643671058105910530F763E0CA
:1005700070E080E090E00E94D204EACF60E00C944A
:100580009602FC0113AA14AA15AA16AA11821282B5
:1005900013821482411551056105710521F0CB01CB
:1005A000BA010C94D2040895FB01BA01A901DC013F
:1005B000D296FC93EE93D19726E0CF010C94BB0624
:1005C0001F93CF93DF93EC01162F60E071E089A9B0
:1005D0009AA90E9410084AE050E0612F89A99AA9BF
:1005E0000E94DF0867E071E089A99AA90E941008BB
:1005F00062E370E080E090E0DF91CF911F910C9476
:10060000D2041F93CF93DF93EC01162F8D818823A3
:1006100089F189A99AA9DC01ED91FC910480F58109
:10062000E02D0995892BA9F307C02637310519F16B
:100630002835310509F41D8289A99AA9DC01ED91BB
:10064000FC910480F581E02D09951816190694F4A3
:1006500089A99AA9DC01ED91FC910680F781E02D32
:1006600009959C01332723363105F9F6612FCE0118
:100670000E94E00283E6DF91CF911F9108950F93CE
:100680001F93CF93DF931F92CDB7DEB78C01662304
:1006900049F081E0F801858360E0C80149830E9448
:1006A00001034981F80145830F90DF91CF911F919C
:1006B0000F91089540ED57E060E070E08CEB91E021
:1006C0000E94C10220E835E240E050E066E172E0BD
:1006D0008CEB91E00E94D4028CEB91E00E94BE0270
:1006E00068E571E08091ED019091EE010E941008A3
:1006F0006AE070E080E090E00E94D20441E060E0B7
:100700008CEB91E00E943F0326E040E855E260E078
:1007100070E086E192E00C94BB06CF92DF92EF92FC
:10072000FF920F931F930E94A304672B682B692BE2
:1007300041F40E94A304623071058105910508F41B
:1007400078C08CEB91E00E94940260930502709354
:10075000060280930702909308020091090210910B
:100760000A0220910B0230910C0260177107820778
:10077000930740F46093090270930A0280930B027E
:1007800090930C020091090210910A0220910B0231
:1007900030910C026B017C01C01AD10AE20AF30A03
:1007A000970186010A3F11052105310508F441C072
:1007B0006093090270930A0280930B0290930C02DB
:1007C0008CEB91E00E94BE026AE671E08091ED013F
:1007D0009091EE010E94100862E771E08091ED01B6
:1007E0009091EE010E9410080E94A304AB01BC018D
:1007F0002AE030E08091ED019091EE010E94D20854
:1008000064E771E08091ED019091EE010E94100883
:1008100065E070E080E090E00E94D2046AE070E061
:1008200080E090E00E94D20461E08CEB91E00E94B5
:1008300001036DE771E086E192E00E94100860E03C
:1008400083EF91E00E944E02AB01BC0122E030E058
:1008500086E192E00E94D10968E871E086E192E0C9
:100860000E94100840E060E083EF91E00E94EE01FA
:10087000AB01BC0122E030E086E192E00E94D109A8
:100880006AE971E086E192E00E941D0860EA7FE07B
:1008900080E090E01F910F91FF90EF90DF90CF905C
:1008A0000C94D20426E04BE06EE083EF91E00C94D0
:1008B0008D001F920F920FB60F9211242F933F932A
:1008C0008F939F93AF93BF9380910E0290910F02ED
:1008D000A0911002B091110230910D0223E0230F7C
:1008E0002D3720F40196A11DB11D05C026E8230F68
:1008F0000296A11DB11D20930D0280930E029093CC
:100900000F02A0931002B0931102809112029091F5
:100910001302A0911402B09115020196A11DB11D00
:100920008093120290931302A0931402B0931502C5
:10093000BF91AF919F918F913F912F910F900FBEDB
:100940000F901F9018952FB7F89460910E02709138
:100950000F0280911002909111022FBF08953FB7AE
:10096000F8948091120290911302A0911402B09118
:10097000150226B5A89B05C02F3F19F00196A11DB1
:10098000B11D3FBF6627782F892F9A2F620F711DE7
:10099000811D911D42E0660F771F881F991F4A95A0
:1009A000D1F70895CF92DF92EF92FF92CF93DF932A
:1009B0006B017C010E94AF04EB01C114D104E1047E
:1009C000F10489F00E94D3090E94AF046C1B7D0BD7
:1009D000683E734090F381E0C81AD108E108F1083D
:1009E000C851DC4FEACFDF91CF91FF90EF90DF90BD
:1009F000CF9008958230910538F0880F991F880FA5
:100A0000991F05970197F1F70895789484B582604E
:100A100084BD84B5816084BD85B5826085BD85B5A2
:100A2000816085BDEEE6F0E0808181608083E1E851
:100A3000F0E0108280818260808380818160808389
:100A4000E0E8F0E0808181608083E1EBF0E080818C
:100A500084608083E0EBF0E0808181608083EAE75E
:100A6000F0E08081846080838081826080838081E7
:100A7000816080838081806880831092C1000895A6
:100A8000833081F028F4813099F08230A1F008950C
:100A90008730A9F08830B9F08430D1F4809180009B
:100AA0008F7D03C0809180008F77809380000895B0
:100AB00084B58F7702C084B58F7D84BD0895809101
:100AC000B0008F7703C08091B0008F7D8093B0001D
:100AD0000895CF93DF9390E0FC01E458FF4F2491F9
:100AE000FC01E057FF4F8491882349F190E0880F83
:100AF000991FFC01E854FF4FA591B49182559F4F77
:100B0000FC01C591D4919FB7611108C0F8948C91F4
:100B1000209582238C93888182230AC0623051F40D
:100B2000F8948C91322F309583238C938881822B7B
:100B3000888304C0F8948C91822B8C939FBFDF91A3
:100B4000CF9108950F931F93CF93DF931F92CDB74B
:100B5000DEB7282F30E0F901E859FF4F8491F90101
:100B6000E458FF4F1491F901E057FF4F049100231F
:100B7000C9F0882321F069830E9440056981E02F34
:100B8000F0E0EE0FFF1FE255FF4FA591B4919FB724
:100B9000F8948C91611103C01095812301C0812BC1
:100BA0008C939FBF0F90DF91CF911F910F9108956C
:100BB000FC01818D228D90E0805C9F4F821B91090A
:100BC0008F7399270895FC01918D828D981731F0CC
:100BD000828DE80FF11D858D90E008958FEF9FEFD6
:100BE0000895FC01918D828D981761F0828DDF014F
:100BF000A80FB11D5D968C91928D9F5F9F73928F10
:100C000090E008958FEF9FEF089585E797E0892B97
:100C100049F080E090E0892B29F00E94750781114E
:100C20000C9400000895FC01848DDF01A80FB11D14
:100C3000A35ABF4F2C91848D90E001968F73992712
:100C4000848FA689B7892C93A089B1898C918064FF
:100C50008C93938D848D981306C00288F389E02DC0
:100C600080818F7D80830895CF93DF93EC01888D01
:100C70008823C9F0EA89FB89808185FD05C0A889A0
:100C8000B9898C9186FD0FC00FB607FCF5CF808126
:100C900085FFF2CFA889B9898C9185FFEDCFCE0170
:100CA0000E941306E7CFDF91CF910895CF92DF9294
:100CB000FF920F931F93CF93DF931F92CDB7DEB7B1
:100CC0006C0181E0D60158968C9358975B969C9165
:100CD0005B975C968C915C97981307C05096ED914A
:100CE000FC915197808185FD2EC0F601038D10E0A7
:100CF0000F5F1F4F0F731127F02EF601848DF8122E
:100D000011C00FB607FCF9CFD6015096ED91FC91BA
:100D10005197808185FFF1CFC60169830E94130638
:100D20006981EBCF838DE80FF11DE35AFF4F60839C
:100D3000D6015B960C935B975296ED91FC9153977D
:100D4000808180620CC0D6015696ED91FC91579738
:100D500060835096ED91FC915197808180648083EF
:100D600081E090E00F90DF91CF911F910F91FF9064
:100D7000DF90CF900895BF92CF92DF92EF92FF92D3
:100D8000CF93DF93EC016A017B01B22EE889F989E8
:100D900082E08083411581EE580761057105A1F05D
:100DA00060E079E08DE390E0A70196010E94F30BEB
:100DB0002150310941095109569547953795279595
:100DC000211580E1380798F0E889F989108260E8F8
:100DD00074E88EE190E0A70196010E94F30B215088
:100DE0003109410951095695479537952795EC8565
:100DF000FD853083EE85FF852083188EEC89FD8983
:100E0000B082EA89FB89808180618083EA89FB89DD
:100E1000808188608083EA89FB8980818068808303
:100E2000EA89FB8980818F7D8083DF91CF91FF905C
:100E3000EF90DF90CF90BF9008951F920F920FB662
:100E40000F9211242F938F939F93EF93FF93E09131
:100E50002602F09127028081E0912C02F0912D0270
:100E600082FD12C0908180912F028F5F8F7320913D
:100E70003002821751F0E0912F02F0E0EA5EFD4F60
:100E8000958F80932F0201C08081FF91EF919F91F8
:100E90008F912F910F900FBE0F901F9018951F925A
:100EA0000F920FB60F9211242F933F934F935F939E
:100EB0006F937F938F939F93AF93BF93EF93FF9322
:100EC00086E192E00E941306FF91EF91BF91AF91EE
:100ED0009F918F917F916F915F914F913F912F9152
:100EE0000F900FBE0F901F90189586E192E00E9420
:100EF000D80521E0892B09F420E0822F0895109273
:100F000019021092180288EE93E0A0E0B0E08093FE
:100F10001A0290931B02A0931C02B0931D0281EA57
:100F200091E0909317028093160285EC90E09093E5
:100F300023028093220284EC90E090932502809318
:100F4000240280EC90E0909327028093260281ECAB
:100F500090E0909329028093280282EC90E0909395
:100F60002B0280932A0286EC90E090932D028093CE
:100F70002C0210922F021092300210923102109225
:100F80003202089508950E9405050E94C2070E943A
:100F90005A03C5E0D6E00E948D032097E1F30E943A
:100FA0000506F9CFCF92DF92EF92FF920F931F9336
:100FB000CF93DF937C016A01EB0100E010E00C1598
:100FC0001D0571F06991D701ED91FC910190F081BF
:100FD000E02DC7010995892B19F00F5F1F4FEFCF47
:100FE000C801DF91CF911F910F91FF90EF90DF909B
:100FF000CF9008956115710581F0DB010D900020FF
:10100000E9F7AD0141505109461B570BDC01ED9149
:10101000FC910280F381E02D099480E090E0089536
:101020000C94FA07DC01ED91FC910190F081E02D28
:1010300009946DE071E00C94FA070F931F93CF931E
:10104000DF93EC010E94FA078C01CE010E9419087F
:10105000800F911FDF91CF911F910F9108958F9273
:101060009F92AF92BF92CF92DF92EF92FF920F9337
:101070001F93CF93DF93CDB7DEB7A1970FB6F89448
:10108000DEBF0FBECDBF7C01C42EE52FCB01D22E1B
:1010900019A221E02D1510F02AE0D22E8E010F5D4D
:1010A0001F4F8D2C912CA12CB12C6C2D7E2FA501C6
:1010B00094010E94F30B8C2DD29E801911240150B3
:1010C00011098A3014F4805D01C0895CF8018083C5
:1010D000211531054105510521F0C22EE32FCA012A
:1010E000E4CFB801C7010E94FA07A1960FB6F894A1
:1010F000DEBF0FBECDBFDF91CF911F910F91FF904B
:10110000EF90DF90CF90BF90AF909F908F90089519
:10111000CF92DF92EF92FF920F931F93CF93DF93C3
:10112000EC016A017B012115310579F4E881F9812F
:101130000190F081E02D642FDF91CF911F910F91ED
:10114000FF90EF90DF90CF9009942A303105E9F4B9
:1011500077FF1AC06DE20E9412088C0144275527C0
:10116000BA014C195D096E097F092AE0CE010E947F
:101170002F08800F911FDF91CF911F910F91FF904A
:10118000EF90DF90CF9008952AE0B701A601CE013D
:10119000DF91CF911F910F91FF90EF90DF90CF9053
:1011A0000C942F082115310541F4DC01ED91FC91DF
:1011B0000190F081E02D642F09940C942F089A017E
:1011C000462F50E060E070E00C94D2084F925F929E
:1011D0006F927F928F929F92AF92BF92CF92DF9247
:1011E000EF92FF920F931F93CF93DF93EC016A016D
:1011F0007B01B22E9A01AB01C701B6010E94EF0B31
:10120000882319F06DEA71E027C026013701E894C0
:1012100077F82FEF3FEF4FE75FE7C301B2010E947E
:10122000EF0B81110DC02FEF3FEF4FE75FE7C301D9
:10123000B2010E94390A18161CF461EB71E00CC06F
:101240002FEF3FEF4FE75FE4C701B6010E94880B25
:101250001816ACF465EB71E0CE01DF91CF911F91D0
:101260000F91FF90EF90DF90CF90BF90AF909F9045
:101270008F907F906F905F904F900C94FA072FEFB4
:101280003FEF4FE75FECC701B6010E94390A87FDC7
:10129000E1CF20E030E0A901C701B6010E94390A80
:1012A00087FF0AC06DE2CE010E9412088C01F7FA96
:1012B000F094F7F8F09402C000E010E0A12C60E098
:1012C00070E080E09FE3AB1441F020E030E040E2CA
:1012D00051E40E943D0AA394F6CF9B01AC01C701E3
:1012E000B6010E94D5096B017C010E94AA0A2B015C
:1012F0003C010E94D60A9B01AC01C701B6010E94C5
:10130000D4096B017C012AE0B301A201CE010E9445
:101310002F08080F191FBB2039F069EB71E0CE01CF
:101320000E94FA07080F191F7B2C772041F120E05B
:1013300030E040E251E4C701B6010E948C0B6B0122
:101340007C010E94A50A4B01AA2497FCA094BA2C08
:101350002AE030E0B501A401CE010E948808080F00
:10136000191FC501B4010E94D80A9B01AC01C70135
:10137000B6010E94D4096B017C017A94D6CFC801D2
:10138000DF91CF911F910F91FF90EF90DF90CF9061
:10139000BF90AF909F908F907F906F905F904F9095
:1013A00008950C94E60808955058BB27AA270ED03C
:1013B00075C166D130F06BD120F031F49F3F11F44C
:1013C0001EF45BC10EF4E095E7FB51C1E92F77D124
:1013D00080F3BA17620773078407950718F071F452
:1013E0009EF58FC10EF4E0950B2EBA2FA02D0B01A8
:1013F000B90190010C01CA01A0011124FF27591B5A
:1014000099F0593F50F4503E68F11A16F040A22F5F
:10141000232F342F4427585FF3CF469537952795D0
:10142000A795F0405395C9F77EF41F16BA0B620BCF
:10143000730B840BBAF09150A1F0FF0FBB1F661F16
:10144000771F881FC2F70EC0BA0F621F731F841F59
:1014500048F4879577956795B795F7959E3F08F07F
:10146000B3CF9395880F08F09927EE0F979587953E
:101470000895D9D008F481E008950CD00FC107D1A8
:1014800040F0FED030F021F45F3F19F0F0C0511170
:1014900039C1F3C014D198F39923C9F35523B1F39B
:1014A000951B550BBB27AA2762177307840738F0D3
:1014B0009F5F5F4F220F331F441FAA1FA9F333D032
:1014C0000E2E3AF0E0E830D091505040E695001CE6
:1014D000CAF729D0FE2F27D0660F771F881FBB1FA2
:1014E000261737074807AB07B0E809F0BB0B802D7C
:1014F000BF01FF2793585F4F2AF09E3F510568F0C8
:10150000B6C000C15F3FECF3983EDCF3869577955B
:101510006795B795F7959F5FC9F7880F911D9695C9
:10152000879597F90895E1E0660F771F881FBB1F25
:10153000621773078407BA0720F0621B730B840BD2
:10154000BA0BEE1F88F7E095089504D06894B111A6
:10155000D9C00895BCD088F09F5790F0B92F992733
:10156000B751A0F0D1F0660F771F881F991F1AF0AE
:10157000BA95C9F712C0B13081F0C3D0B1E0089577
:10158000C0C0672F782F8827B85F39F0B93FCCF3F8
:10159000869577956795B395D9F73EF490958095A4
:1015A000709561957F4F8F4F9F4F0895E89409C0C4
:1015B00097FB3EF490958095709561957F4F8F4F86
:1015C0009F4F9923A9F0F92F96E9BB279395F6959C
:1015D000879577956795B795F111F8CFFAF4BB0F1A
:1015E00011F460FF1BC06F5F7F4F8F4F9F4F16C07E
:1015F000882311F096E911C0772321F09EE8872F08
:10160000762F05C0662371F096E8862F70E060E0C3
:101610002AF09A95660F771F881FDAF7880F96953C
:10162000879597F90895990F0008550FAA0BE0E8E0
:10163000FEEF16161706E807F907C0F01216130694
:10164000E407F50798F0621B730B840B950B39F4D4
:101650000A2661F0232B242B252B21F408950A263A
:1016600009F4A140A6958FEF811D811D089597F97A
:101670009F6780E870E060E008959FEF80EC089538
:1016800000240A9416161706180609060895002461
:101690000A9412161306140605060895092E0394DB
:1016A000000C11F4882352F0BB0F40F4BF2B11F44F
:1016B00060FF04C06F5F7F4F8F4F9F4F089557FDAE
:1016C0009058440F551F59F05F3F71F04795880FB0
:1016D00097FB991F61F09F3F79F087950895121647
:1016E00013061406551FF2CF4695F1DF08C01616F3
:1016F00017061806991FF1CF8695710561050894A4
:101700000895E894BB2766277727CB0197F90895BA
:101710008ADF08F48FEF08950BD0C0CFB1DF28F037
:10172000B6DF18F0952309F0A2CFA7CF1124EACF96
:10173000C6DFA0F3959FD1F3950F50E0551F629F30
:10174000F001729FBB27F00DB11D639FAA27F00D1A
:10175000B11DAA1F649F6627B00DA11D661F829F41
:101760002227B00DA11D621F739FB00DA11D621F26
:10177000839FA00D611D221F749F3327A00D611D43
:10178000231F849F600D211D822F762F6A2F112425
:101790009F5750408AF0E1F088234AF0EE0FFF1F78
:1017A000BB1F661F771F881F91505040A9F79E3FAF
:1017B000510570F05CCFA6CF5F3FECF3983EDCF3B1
:1017C000869577956795B795F795E7959F5FC1F7EC
:1017D000FE2B880F911D9695879597F9089523DF25
:1017E000880B990B0895A1E21A2EAA1BBB1BFD01C1
:1017F0000DC0AA1FBB1FEE1FFF1FA217B307E407F0
:10180000F50720F0A21BB30BE40BF50B661F771F47
:10181000881F991F1A9469F7609570958095909527
:101820009B01AC01BD01CF010895EE0FFF1F059094
:0A183000F491E02D0994F894FFCF25
:10183A00564D4450435F005F564D4450430D0A00D5
:10184A004572726F723A20417474656D70742074B7
:10185A006F20736574206120726561642D6F6E6CF0
:10186A0079207661726961626C65206F72206461A9
:10187A0074612074797065206E6F7420737570704E
:10188A006F727465640D0A00564D4450565F317C80
:10189A00315F564D4450560D0A00564D4450455F2F
:1018AA0031007C005F564D4450450D0A0048756D65
:1018BA0065646164203D200020252054656D7065B3
:1018CA00726174757261203D20002043000000009F
:1018DA00005606D207D805F105E30534066E616E97
:0C18EA0000696E66006F7666002E00003C
:00000001FF
